:100000000C942A000C9434000C9434000C943400AA
:100010000C9434000C9434000C9434000C94340090
:100020000C9434000C9434000C9434000C94340080
:100030000C9434000C9434000C9434000C94340070
:100040000C9434000C9434000C9434000C94340060
:100050000C94340011241FBECFE5D8E0DEBFCDBF25
:100060000E945D000C9481000C9400008AB18869A4
:100070008AB980B5866880BD87E689B908955D9B99
:10008000FECF8CB9089580EB87BB81E58DB90895CB
:1000900098B39F7E98BB8FB9779BFECF88B3806162
:1000A00088BB089598B39F7E98BB8FB9779BFECF8E
:1000B0008FB198B3906198BB08950E9443000E944D
:1000C000360080E00E94480080E80E94480082E0FC
:1000D0000E94480082E00E945200C82F88E30E94DC
:1000E0003F008DE00E943F008C2F0E943F002FEFC9
:1000F0008DE399E4215080409040E1F700C000007A
:06010000E9CFF894FFCFE7
:00000001FF
